:020000040800F2
:1000000008C00024E102000891400108D115010850
:10001000F12F0108490F0008E1DC01080000000091
:1000200000000000000000000000000091730108C3
:10003000F921000800000000515F0108397A010829
:10004000FB020008FB020008FB020008FB0200089C
:10005000FB020008FB020008FB020008FB0200088C
:10006000FB020008FB020008FB02000891140008D4
:10007000A1140008B1140008FB020008FB020008EC
:10008000C1140008D1140008FB020008A1270008D1
:1000900041280008B127000851280008FB02000889
:1000A000FB020008FB020008FB020008FB0200083C
:1000B000FB020008FB020008FB020008FB0200082C
:1000C000FB020008FB020008FB020008FB0200081C
:1000D000FB020008FB020008C9A20108D9A201081E
:1000E000FB020008FB02000800000000FB02000801
:1000F000FB020008FB020008FB020008E1140008F4
:10010000FB020008FB020008FB020008FB020008DB
:10011000FB020008F98C0108FB020008A97C010819
:10012000FB020008FB020008FB020008FB020008BB
:10013000FB020008FB020008FB020008FB020008AB
:1001400000000000000000000000000000000000AF
:10015000FB020008FB020008FB020008FB0200088B
:10016000FB020008FB020008FB020008FB0200087B
:10017000FB02000809410108FB0200080000000022
:10018000FB020008FB020008218D0108FB020008A9
:10019000FB020008FB020008FB020008FB0200084B
:1001A000FB020008FB020008FB0200080000000040
:1001B000FB020008FB020008FB020008FB0200082B
:1001C000FB020008FB020008000000000000000025
:1001D0000000000000000000FB020008000000001A
:1001E000000000000000000000000000000000000F
:1001F0000000000000000000FB020008FB020008F5
:10020000FB020008FB02000800000000FB020008DF
:10021000FB020008FB020008FB020008FB020008CA
:10022000FB02000800000000FB02000800000000C4
:10023000FB020008FB02000800000000FB020008AF
:10024000FB020008FB020008FB020008FB0200089A
:10025000FB020008FB020008FB020008FB0200088A
:10026000FB020008FB020008FB020008FB0200087A
:10027000FB020008FB020008FB020008000000006F
:10028000FB020008FB020008FB020008FB0200085A
:1002900000000000FB020008FB0200080000000054
:1002A00000000000FB020008FB020008FB0200083F
:1002B000B9A20108FB020008FB020008E9280008B7
:1002C000F9280008997C0108FB020008DFF80CD02F
:1002D00000F0E8F800480047A105020808C0002423
:1002E0000648804706480047FEE7FEE7FEE7FEE7D0
:1002F000FEE7FEE7FEE7FEE7FEE7FEE7597B0108C3
:10030000CD0200082DE9F05F0546002092469B468D
:1003100088460646814640241BE02846414647461B
:10032000224600F077F853465A46C01A914110D33E
:1003300011461846224600F05EF82D1A67EB0108B8
:100340004F4622460120002100F055F817EB000926
:100350004E41201EA4F10104DFDC484631462A4606
:100360004346BDE8F09F40EA01039B0703D009E044
:1003700008C9121F08C0042AFAD203E011F8013B91
:1003800000F8013B521EF9D27047D2B201E000F8EA
:10039000012B491EFBD270470022F6E710B5134629
:1003A0000A4604461946FFF7F0FF204610BDF0B498
:1003B000CA17CB0F50405140C61841F100054FEA13
:1003C000C372314628004FF0960303D0B623F0BC29
:1003D00000F039B830460021F9E730B404469623DE
:1003E0000800214604D0B62330BC002200F02BB810
:1003F00020460021F8E7202A04DB203A00FA02F127
:10040000002070479140C2F1200320FA03F3194302
:1004100090407047202A04DB203A21FA02F00021A4
:10042000704721FA02F3D040C2F120029140084304
:10043000194670470029A8BF7047401C490008BFF3
:1004400020F00100704710B4B0FA80FC00FA0CF004
:1004500050EA010404BF10BC704749B1CCF120043C
:1004600021FA04F411FA0CF118BF012121430843C9
:10047000A3EB0C01CB1D4FEA00614FEA102042BFF5
:10048000002010BC704700EBC35010440029A4BFEB
:1004900010BC7047401C490008BF20F0010010BC90
:1004A000704700001CB509480090094801900546B6
:1004B000009C06E0E06840F0010394E807009847DC
:1004C0001034AC42F6D3FFF705FF0000AC8F0208F2
:1004D000CC8F020870B58C1810F8015B15F007037B
:1004E00001D110F8013B2A1106D110F8012B03E0CD
:1004F00010F8016B01F8016B5B1EF9D12B0705D4D5
:100500000023521E0DD401F8013BFAE710F8013B1D
:10051000CB1A921C03E013F8015B01F8015B521E39
:10052000F9D5A142D8D3002070BD00000000000022
:1005300080B584B003900398006842F20001C4F2D1
:100540000201884209D0FFE70398006842F20011D7
:10055000C4F20201884209D1FFE742F20830C4F236
:100560000200006810F4403F09D129E046F208304B
:10057000C5F60200006810F4403F21D0FFE70DF0FF
:1005800053F80290039840680190B0F5803F0AD07C
:10059000FFE70198B0F5003F05D0FFE70198B0F5FF
:1005A000403F07D00AE00398C1880298B0FBF1F001
:1005B000029004E002988008029000E0FFE75FE00C
:1005C0004FF4002000210BF03BF8029003984068A4
:1005D0000090B0F5802F32D0FFE70098B0F5002FE3
:1005E0002DD0FFE70098B0F5402F28D0FFE7009806
:1005F000B0F5801F23D0FFE70098B0F5A01F1ED0F4
:10060000FFE70098B0F5C01F19D0FFE70098B0F5DC
:10061000E01F1FD0FFE70098B0F5001F1ED0FFE7D6
:100620000098B0F5101F1DD0FFE70098B0F5201F0F
:100630001CD0FFE70098B0F5301F1BD01EE00398D8
:1006400041686FF0010000EA51410298B0FBF1F0FF
:10065000029014E002980009029010E0029840090C
:1006600002900CE002988009029008E00298C0090C
:10067000029004E00298000A029000E0FFE7FFE722
:10068000029840080290029845F61061C0F25F019E
:10069000884209D8FFE703980068806820F440701A
:1006A0000399096888602EE002984BF62041C0F259
:1006B000BE0188420AD8FFE70398006880680121DC
:1006C00061F309200399096888601BE0029847F6E6
:1006D0004001C0F27D1188420AD8FFE70398006804
:1006E0008068022161F3092003990968886008E0A5
:1006F00003980068806840F4407003990968886036
:10070000FFE7FFE7FFE704B080BD00000000000046
:1007100082B0019000208DF80300FFE79DF80300F0
:10072000052829D8FFE701989DF8032050F82200FA
:1007300040F21801C2F2004101F5CE7101EB8202D4
:10074000C2F8DC009DF8030001EB80020020C2F833
:10075000F4009DF8032001EB8202C2F80C019DF821
:10076000032001EB8201C1F82401FFE79DF803009B
:1007700001308DF80300D1E702B07047000000009F
:1007800080B590B0DDF848C08DED0F0A0E900D9148
:100790000C920B9340F21800C2F2004090F89C01BA
:1007A00040B1FFE79DED0F0AB5EE400AF1EE10FAF9
:1007B00004DCFFE70E98FFF7ABFF85E100208DF822
:1007C0002B00FFE79DF82B00052800F27D81FFE755
:1007D00040F21800C2F2004090F89D019DF82B10E5
:1007E000C840C007F0B1FFE79DF82B1040F2180099
:1007F000C2F20040405C032837D0FFE79DF82B1081
:1008000040F21800C2F20040405C04282DD0FFE7FF
:100810009DF82B1040F21800C2F20040405C062800
:1008200023D0FFE70E989DF82B2050F8220040F2CD
:100830001801C2F2004101F5CE7101EB8202C2F84B
:10084000DC009DF82B0001EB80020020C2F8F400D0
:100850009DF82B2001EB8202C2F80C019DF82B20A1
:1008600001EB8201C1F8240128E10B989DF82B10BF
:1008700000EB810090ED000A129800EB810090EDF2
:10088000001A30EE410A8DED090A9DED090A9DF826
:100890002B1040F21800C2F20040049000F5CE7018
:1008A000059000EB8100D0ED130A1EF055FF04986F
:1008B0008DED090A9DED090A9DF82B1000F50070D9
:1008C00000EB810191ED001AF1EE410A9DF82B1029
:1008D00000EB810090ED001A1EF016FF05988DEDDB
:1008E000090A9DF82B1000EB810090ED250ADFED41
:1008F000770A9FED771A1EF007FF049905988DED92
:10090000080A099A9DF82B3000EB8303C3F80C21E9
:100910009DED081A9DF82B2001F5307101EB820244
:1009200092ED002A9DED083AB7EE000A30EE430A38
:100930009DED093A20EE030AA1EE020A9DF82B2054
:1009400001EB820181ED000A9DF82B1000EB810084
:10095000406806909DED060A9FED5E1AB4EE410ACE
:10096000F1EE10FA06DAFFE74DF20A70C3F6234003
:100970000690FFE79DF82B1040F21800C2F20040ED
:1009800000F5CE72029202EB810191ED490A9DF8C9
:100990002B1002EB810191ED071A9DF82B3000F529
:1009A0002471019101EB830393ED002AA1EE420A29
:1009B0009DF82B3002EB830292ED0D1A9DF82B303F
:1009C00000F51E72039202EB830292ED003A0E9A3A
:1009D0009DF82B3002EB830292ED002A32EE432A7F
:1009E000A1EE020A9DED061A80EE010A8DED070ABE
:1009F0009DED071A9DED0F2A9DF82B2001EB820239
:100A000092ED000AA1EE020A82ED000A9DF82B2069
:100A100001EB820191ED000A9DF82B1000F50670A4
:100A200000EB810191ED001AF1EE410A9DF82B10C7
:100A300000EB810090ED001A1EF066FE019A02980C
:100A400003999DF82B3002EB830383ED000A9DF898
:100A50002B3002EB830292ED001A9DED0F2A9DF8D8
:100A60002B2001EB820292ED000AA1EE020A82ED38
:100A7000000A9DF82B2001EB820191ED000A9DF800
:100A80002B1000EB8101D1ED2B0A9DF82B1000EB10
:100A9000810090ED311A1EF037FE03989DF82B105F
:100AA00000EB810181ED000A9DF82B1050F8210028
:100AB0000E999DF82B2041F82200FFE79DF82B00AE
:100AC00001308DF82B007DE610B080BD00000000E5
:100AD000A4707D3F0AD7233C80B58CB08DF82B00E5
:100AE0008DED090ACDED080A8DED071ACDED061A38
:100AF0009DF82B00052808D8FFE79DED090AB5EE03
:100B0000400AF1EE10FA03DCFFE700200B90CAE088
:100B10009DF82B1040F21800C2F20040405C0528FE
:100B200011D0FFE79DF82B1040F21800C2F20040F0
:100B3000405C062807D0FFE79DF82B0000F074F911
:100B400000200B90AFE09DED080A9DED071A30EEF6
:100B5000410A8DED050A9DED050A9DF82B1040F226
:100B60001800C2F2004000EB810090ED491AB1EE8E
:100B7000411AB4EE410AF1EE10FA15DDFFE79DEDE2
:100B8000050A9DF82B1040F21800C2F2004000EB5D
:100B9000810090ED491AB4EE410AF1EE10FA03DA41
:100BA000FFE700200590FFE79DED051A9DED092A5E
:100BB0009DF82B2040F21800C2F20040029000F590
:100BC000B671019101EB820200F1DC03039392ED17
:100BD000000AA1EE020A82ED000A9DF82B2001EB2B
:100BE000820191ED000A9DF82B1000F59E7000EB3C
:100BF000810191ED001AF1EE410A9DF82B1000EBF6
:100C0000810090ED001A1EF07FFD019A0298039971
:100C10009DF82B3002EB830383ED000A9DF82B3007
:100C200001EB830393ED001A9DED052A9DF82B300F
:100C300001EB830393ED060A9DF82B3002EB830250
:100C400092ED003A20EE030AA1EE020A9DF82B2055
:100C500001EB820191ED0C1A9DED062AA1EE420AEC
:100C60008DED040A9DED040A9DF82B1000F5AA7085
:100C700000EB810191ED001AF1EE410A9DF82B1075
:100C800000EB810090ED001A1EF03EFD03998DED02
:100C9000040A04989DF82B2001EB8201C1F8A800FA
:100CA00004980B90FFE79DED0B0A0CB080BD00008F
:100CB00080B586B08DF813008DED030ACDED020AE4
:100CC0008DED011A9DF8131040F21800C2F2004099
:100CD000405C18B9FFE70020059044E09DF8130040
:100CE000012811D1FFE740F21800C2F2004090F84D
:100CF000400048B1FFE79DED030ADDED020A1EF05A
:100D000023FB8DED050A2EE09DF81300032811D179
:100D1000FFE740F21800C2F2004090F8740048B1BA
:100D2000FFE79DED030ADDED020A1EF0A1FB8DED4C
:100D3000050A18E09DF81300042811D1FFE740F2DE
:100D40001800C2F2004090F8A80048B1FFE79DEDFE
:100D5000020ADDED010A1EF043FC8DED050A02E0FA
:100D600000200590FFE79DED050A06B080BD00005C
:100D700087B08DF817008DED040ACDED030A8DEDD7
:100D8000021A9DF81700052814D8FFE79DF81710E0
:100D900040F21800C2F20040405C02280DD0FFE78C
:100DA0009DF8171040F21800C2F20040405C042881
:100DB00003D0FFE70020069031E09DF817000328DC
:100DC00009D1FFE740F21800C2F20040816B0191A7
:100DD000C06B009010E09DF8171040F21800C2F2AE
:100DE000004000EB8101896801919DF8171000EB2C
:100DF0008100006A0090FFE79DED011A9DED042A35
:100E00009DED030A30EE422A9DED000A9DED023A67
:100E100020EE030A91EE420A8DED060AFFE79DEDF2
:100E2000060A07B07047000081B08DF803009DF8F6
:100E30000300062801D3FFE712E09DF8030040F20B
:100E40001801C2F20041DC3101EB80020020C2F83F
:100E500090009DF8032001EB8201C1F8A800FFE794
:100E600001B070470000000085B08DF813008DEDD3
:100E7000030ACDED020A0191009240F21800C2F27D
:100E80000040C079002847D0FFE79DF8131040F2DA
:100E90001800C2F20040405C02280AD0FFE79DF82B
:100EA000131040F21800C2F20040405C042833D115
:100EB000FFE79DF8130001280AD0FFE79DF8130013
:100EC000032805D0FFE79DF81300042824D1FFE78D
:100ED0009DF8130003280BD1FFE740F21800C2F27F
:100EE0000040816B019A1160C06B0099086012E0AC
:100EF0009DF8131040F21800C2F2004000EB81018F
:100F00008968019A11609DF8131000EB8100006A56
:100F100000990860FFE706E00398019908600298CD
:100F200000990860FFE705B070470000000000006E
:100F300080B543F28040C2F2004004210EF038FD3B
:100F400080BD000000000000FFE7FEE70000000099
:100F500084B08DF80F000291ADF806209DF80F00C7
:100F60000146009123281DD80099DFE801F01213F3
:100F70001415161B1B1B1B1B1B1B1B1B1B1B1B1BD3
:100F80001B1B1B1B1B1B1B1B1B1B1B1B1B1B1718B8
:100F9000191A08E007E006E005E004E003E002E0DB
:100FA00001E000E0FFE7002004B07047000000000F
:100FB000002070470000000080B582B042F244601B
:100FC000C2F20040009041F62851C2F200410022D6
:100FD000019219F031FD009841F22851C2F200410E
:100FE00019F00AFD019802B080BD00000000000069
:100FF00080B584B003900291039942F24460C2F23A
:101000000040019019F0F8FC019819F099FC0020BB
:1010100004B080BD0000000083B0029001918DF803
:10102000032000208DF802009DF9020003B07047F4
:1010300082B00190ADF80210BDF802200199B1F81C
:10104000E0041044A1F8E0040199B1F8E03448F25A
:101050004930C0F23400A3FB00204FF49C6200FB37
:101060001230A1F8E00402B0704700000000000058
:1010700080B588B00690059105208DF811000220FA
:101080008DF810008DF80F0009208DF80E00FFE795
:10109000069800F01DF9ADF812000928C0F2908002
:1010A000FFE70698B0F8E01400F072F9A52805D023
:1010B000FFE706980121FFF7BBFFE9E700208DF865
:1010C0000800FFE79DF80800042815DCFFE70698F4
:1010D000B0F8E0149DF80820114489B200F058F9E6
:1010E0009DF808200DF109018854FFE79DF80800DC
:1010F00001308DF80800E5E70DF1090005211DF02C
:1011000073FE28B9FFE706980121FFF791FFBFE7BB
:101110009DF80A009DF80B1040EA0120ADF806008A
:10112000BDF806000930ADF80400BDF80400B0F5C4
:101130009C6F05DDFFE706980121FFF779FFA7E720
:10114000BDF81200BDF80410884204DAFFE7002061
:10115000ADF81E0038E00020ADF80200FFE7BDF852
:101160000200BDF80410884214DAFFE70698B0F8D0
:10117000E014BDF80220114489B200F009F9059984
:10118000BDF802208854FFE7BDF802000130ADF839
:101190000200E4E70598BDF804101DF0E5FD28B94C
:1011A000FFE706980121FFF743FF71E70698BDF8B6
:1011B0000410FFF73DFFBDF80400ADF81E0003E08A
:1011C0000020ADF81E00FFE7BDF81E0008B080BD8E
:1011D00080B586B004900391A9208DF80B005320B0
:1011E0008DF80A001520ADF8080002208DF80700E0
:1011F000FFE7049800F06CF842F20C61C2F2004183
:101200000880152859DBFFE70498B0F8E01400F0D7
:10121000BFF8A92805D0FFE704980121FFF708FFD0
:10122000E7E70498B0F8E014013189B200F0B0F8B3
:10123000532805D0FFE704980121FFF7F9FED8E70E
:1012400042F20C60C2F200400088142804DCFFE780
:101250000020ADF8160034E00020ADF80400FFE7F0
:10126000BDF80400142814DCFFE70498B0F8E0147B
:10127000BDF80420114489B200F08AF80399BDF842
:1012800004208854FFE7BDF804000130ADF80400E5
:10129000E6E70398152121F093F828B9FFE70498B1
:1012A0000121FFF7C5FEA4E7049815210091FFF77F
:1012B000BFFE0098ADF8160003E00020ADF8160060
:1012C000FFE7BDF8160006B080BD0000000000007A
:1012D00082B000900099B1F8E004B1F8E2148842BD
:1012E00004D1FFE70020ADF806001BE00099B1F83B
:1012F000E004B1F8E214884209DAFFE70099B1F896
:10130000E204B1F8E014401AADF806000AE00098D3
:10131000B0F8E014B0F8E204401A00F59C60ADF8B3
:101320000600FFE7BDF8060002B0704700000000AD
:1013300080B582B001900198FFF7CAFFC0F59C60AC
:1013400080B202B080BD000081B000900099A5205D
:1013500081F8E4040099002081F8E504009A27212F
:10136000A2F8E614009AA92182F8E814009A532101
:1013700082F8E914009A1521A2F8EA140099A1F85C
:10138000E0040099A1F8E20401B0704700000000F9
:1013900082B00190ADF80210BDF8022048F2493049
:1013A000C0F23400A2FB00104FF49C6100FB11203E
:1013B000ADF800000198BDF80010405C02B0704725
:1013C00080B584B002900191ADF802200298FFF739
:1013D000AFFFBDF80210884204DAFFE70020ADF845
:1013E0000E004FE00298B0F8E204BDF80210084485
:1013F000B0F59C6F1EDCFFE70298B0F8E2140844D9
:101400000199BDF80220FEF7AEFFBDF80220029957
:10141000B1F8E2041044A1F8E2040298B0F8E20442
:10142000B0F59C6F05D1FFE702990020A1F8E20416
:10143000FFE722E00298B0F8E204C0F59C60ADF846
:1014400000000298B0F8E21408440199BDF80020A9
:10145000FEF789FF02980199BDF800301944BDF8E4
:101460000220D21AFEF77FFFBDF80200BDF800107F
:10147000401A0299A1F8E204FFE7BDF80200ADF8B6
:101480000E00FFE7BDF80E0004B080BD00000000B4
:1014900080B542F68020C2F2004004F0A5FA80BD7B
:1014A00080B542F69010C2F2004004F09DFA80BD73
:1014B00080B542F67030C2F2004004F095FA80BD6B
:1014C00080B542F6E830C2F2004004F08DFA80BDEB
:1014D00080B542F6F820C2F2004004F085FA80BDE3
:1014E00080B542F60820C2F2004004F07DFA80BDCB
:1014F00083B002900298016801201022C4F2020217
:101500009142009000F0A380FFE70298016801205B
:101510002822C4F202029142009000F09880FFE776
:101520000298016801204022C4F202029142009018
:1015300000F08D80FFE70298016801205822C4F274
:1015400002029142009000F08280FFE70298016859
:1015500001207022C4F202029142009077D0FFE78E
:101560000298016801208822C4F202029142009090
:101570006DD0FFE7029801680120A022C4F20202A8
:101580009142009063D0FFE7029801680120B822E1
:10159000C4F202029142009059D0FFE7029801681C
:1015A000012040F21042C4F20202914200904ED05B
:1015B000FFE702980168012040F22842C4F20202CB
:1015C0009142009043D0FFE702980168012040F269
:1015D0004042C4F202029142009038D0FFE70298E4
:1015E0000168012040F25842C4F202029142009088
:1015F0002DD0FFE702980168012040F27042C4F24A
:1016000002029142009022D0FFE702980168012077
:1016100040F28842C4F202029142009017D0FFE7E4
:1016200002980168012040F2A042C4F202029142F5
:1016300000900CD0FFE7029800684FF64831CBF6D7
:10164000FD710844B0FA80F040090090FFE700986F
:10165000C00740B3FFE70298007810384AF6AB2184
:10166000CAF6AA21A0FB011000090190019800F020
:10167000070143F65560C0F60200405C0299C86558
:101680000198042807D3FFE702990868042262F34F
:101690000900886506E00299086840F2FF3290432D
:1016A0008865FFE705E00299086820F0FF0088657B
:1016B000FFE70298806D03B0704700000000000053
:1016C00084B003900398006801900398016801209A
:1016D00045F20842C5F60202914200904ED0FFE763
:1016E00003980168012045F21C42C5F602029142AE
:1016F000009043D0FFE703980168012045F2304293
:10170000C5F602029142009038D0FFE703980168C5
:10171000012045F24442C5F60202914200902DD0CC
:10172000FFE703980168012045F25842C5F602021E
:101730009142009022D0FFE703980168012045F212
:101740006C42C5F602029142009017D0FFE7039861
:101750000168012045F28042C5F6020291420090E4
:101760000CD0FFE7039800684AF66C31CAF2FD71AD
:101770000844B0FA80F040090090FFE70098C007E5
:1017800010B3FFE70398007808384CF6CD41CCF64B
:10179000CC41A0FB011000090290029945F600001F
:1017A000C5F6020000EB810003990866039945F62F
:1017B0008000C5F602004866029800F01F01012073
:1017C00088400399886635E00398007810384AF617
:1017D000AB21CAF6AA21A0FB0110000902900198D2
:1017E00040F2B841C4F2020188420CD8FFE70198E8
:1017F00040F21041C4F20201884204D3FFE702988C
:1018000008300290FFE7029940F60000C4F202009F
:1018100000EB810003990866039940F68000C4F24A
:1018200002004866029800F01F01012088400399D9
:101830008866FFE704B0704783B002900298007991
:1018400001900198002800F08A80FFE7019808289D
:1018500000F28580FFE702980168012045F2084206
:10186000C5F60202914200904ED0FFE7029801684F
:10187000012045F21C42C5F602029142009043D07D
:10188000FFE702980168012045F23042C5F60202E6
:101890009142009038D0FFE702980168012045F29C
:1018A0004442C5F60202914200902DD0FFE7029813
:1018B0000168012045F25842C5F6020291420090AB
:1018C00022D0FFE702980168012045F26C42C5F67C
:1018D00002029142009017D0FFE7029801680120B0
:1018E00045F28042C5F60202914200900CD0FFE71B
:1018F000029800684AF66C31CAF2FD710844B0FAE9
:1019000080F040090090FFE70098C00780B1FFE732
:10191000019945F6FC00C5F6020000EB8100029932
:10192000C866029945F64010C5F6020008670FE048
:10193000019940F6FC00C4F2020000EB810002991C
:10194000C866029940F64010C4F202000867FFE73B
:101950000198411E0120884002994867FFE703B0C3
:10196000704700000000000085B0049000208DF852
:101970000F000498806918BBFFE70498806A029002
:1019800003281BD80299DFE801F0020D0218049821
:1019900090F82F00C00720B1FFE701208DF80F005D
:1019A000FFE70CE00498C06AB0F1C07F04D1FFE704
:1019B00001208DF80F00FFE701E000E0FFE747E0BE
:1019C00004988069B0F5005F26D1FFE70498806A2B
:1019D000019003281ED80199DFE801F002060211E8
:1019E00001208DF80F0016E0049890F82F00C00732
:1019F00020B1FFE701208DF80F00FFE70BE004980E
:101A0000C06AB0F1C07F04D1FFE701208DF80F005C
:101A1000FFE700E0FFE71AE00498806A00900328DF
:101A200004D3FFE70098032804D00EE001208DF8CE
:101A30000F000BE0049890F82F00C00720B1FFE7DB
:101A400001208DF80F00FFE700E0FFE7FFE7FFE769
:101A50009DF80F0005B0704789B008900791069275
:101A600005930898806D04900898806D03900898FD
:101A7000016801201022C4F202029142029000F09B
:101A80000381FFE70898016801202822C4F20202BE
:101A90009142029000F0F880FFE708980168012069
:101AA0004022C4F202029142029000F0ED80FFE772
:101AB0000898016801205822C4F202029142029063
:101AC00000F0E280FFE70898016801207022C4F26C
:101AD00002029142029000F0D780FFE70898016867
:101AE00001208822C4F202029142029000F0CC80D0
:101AF000FFE7089801680120A022C4F20202914287
:101B0000029000F0C180FFE7089801680120B82228
:101B1000C4F202029142029000F0B680FFE70898FA
:101B20000168012040F21042C4F202029142029088
:101B300000F0AA80FFE708980168012040F22842DF
:101B4000C4F202029142029000F09E80FFE70898E2
:101B50000168012040F24042C4F202029142029028
:101B600000F09280FFE708980168012040F2584297
:101B7000C4F202029142029000F08680FFE70898CA
:101B80000168012040F27042C4F2020291420290C8
:101B90007AD0FFE708980168012040F28842C4F239
:101BA0000202914202906FD0FFE70898016801207D
:101BB00040F2A042C4F202029142029064D0FFE7D8
:101BC00008980168012040F2B842C4F20202914232
:101BD000029059D0FFE708980168012045F20842B9
:101BE000C5F60202914202904ED0FFE708980168C4
:101BF000012045F21C42C5F602029142029043D0F8
:101C0000FFE708980168012045F23042C5F602025C
:101C10009142029038D0FFE708980168012045F210
:101C20004442C5F60202914202902DD0FFE7089887
:101C30000168012045F25842C5F602029142029025
:101C400022D0FFE708980168012045F26C42C5F6F2
:101C500002029142029017D0FFE708980168012024
:101C600045F28042C5F60202914202900CD0FFE795
:101C7000089800684AF66C31CAF2FD710844B0FA5F
:101C800080F040090290FFE70298C00770B1FFE7BB
:101C90000898416E806E48600898C06E28B1FFE7D2
:101CA0000898016F406F4860FFE7FFE708980168F8
:101CB00001201022C4F202029142019000F0A380A0
:101CC000FFE70898016801202822C4F2020291422D
:101CD000019000F09880FFE70898016801204022F9
:101CE000C4F202029142019000F08D80FFE7089853
:101CF000016801205822C4F202029142019000F0D2
:101D00008280FFE70898016801207022C4F2020275
:101D10009142019077D0FFE708980168012088225E
:101D2000C4F20202914201906DD0FFE70898016869
:101D30000120A022C4F202029142019063D0FFE789
:101D4000089801680120B822C4F202029142019071
:101D500059D0FFE708980168012040F21042C4F210
:101D60000202914201904ED0FFE7089801680120DD
:101D700040F22842C4F202029142019043D0FFE7B0
:101D800008980168012040F24042C4F202029142E8
:101D9000019038D0FFE708980168012040F25842CE
:101DA000C4F20202914201902DD0FFE70898016829
:101DB000012040F27042C4F202029142019022D00E
:101DC000FFE708980168012040F28842C4F202024D
:101DD0009142019017D0FFE708980168012040F276
:101DE000A042C4F20202914201900CD0FFE7089891
:101DF00000684FF64831CBF6FD710844B0FA80F028
:101E000040090190FFE70198C00750B3FFE7089829
:101E1000C06D00F01F013F20884004998860089839
:101E20000168086820F4802008600598089909680E
:101E3000486008988068402809D1FFE7069808990B
:101E400009688860079808990968C86008E00798D9
:101E5000089909688860069808990968C860FFE7CA
:101E600082E008980168012045F20842C5F60202A6
:101E7000914200904ED0FFE708980168012045F29A
:101E80001C42C5F602029142009043D0FFE7089839
:101E90000168012045F23042C5F6020291420090ED
:101EA00038D0FFE708980168012045F24442C5F6A2
:101EB0000202914200902DD0FFE7089801680120AE
:101EC00045F25842C5F602029142009022D0FFE747
:101ED00008980168012045F26C42C5F60202914261
:101EE000009017D0FFE708980168012045F2804272
:101EF000C5F60202914200900CD0FFE708980068F6
:101F00004AF66C31CAF2FD710844B0FA80F040091B
:101F10000090FFE70098C00720B3FFE70898C06D66
:101F200000F01F0101208840039948600598089936
:101F30000968486008988068402809D1FFE706983A
:101F4000089909688860079808990968C86008E0D6
:101F50000798089909688860069808990968C86010
:101F6000FFE700E0FFE7FFE709B07047000000006F
:101F700082B00090009991F83800013881F838005B
:101F8000009890F93800052823DBFFE70098808847
:101F900008281ED0FFE700988088092819D0FFE79D
:101FA000009880880A2814D0FFE7009880880B28C2
:101FB0000FD0FFE7009880880C280AD0FFE7009830
:101FC00080880D2805D0FFE7009880880E2807D16B
:101FD000FFE70099002081F838008DF8070003E042
:101FE00001208DF80700FFE79DF8070002B0704759
:101FF00080B51DF0C5FE1DF0EBFD40F67C40C2F241
:102000000040FEF785FB43F67811C2F20041012043
:10201000087080BD0000000081B041F20400CEF2E3
:10202000000000680090009840F21861C2F2004180
:102030000A68A0EB020C40F21062C2F20042136880
:10204000506813EB0C0340F10000136050600098DF
:10205000086001B07047000080B500F081F840F2E0
:102060001061C2F2004108684968FEF7B6F900EE57
:10207000100A40F20860C2F2004090ED001AB8EE7B
:10208000411A80EE010A80BD80B500F069F840F287
:102090001061C2F2004108684968FEF79EF900EE3F
:1020A000100A40F20460C2F2004090ED001AB8EE4F
:1020B000411A80EE010A80BD4EF6FC51CEF20001BD
:1020C000086840F08070086041F6B071CEF20001FF
:1020D0004CF65560CCF2AC50086041F20401CEF2EF
:1020E00000010020086041F20003CEF200031A68EC
:1020F00042F001021A6040F2A432C2F200421368B8
:1021000040F20462C2F200421360136844F6D35CEA
:10211000C1F2620CA3FB0CC39B0940F2086CC2F233
:10212000004CCCF8003012684DF68363C4F21B33C8
:10213000A2FB0332920C40F20C63C2F200431A601D
:10214000096840F21862C2F20042116040F2106168
:10215000C2F20041486008607047000000000000C3
:1021600080B586B0FFF758FF40F21061C2F200411F
:1021700002910868496840F20462C2F2004201928A
:10218000126800230493FEF7BDF8019A0299049B9C
:1021900041F2FC0CC2F2004CCDF814C0CCF80000A7
:1021A000086849681268FEF7ADF810461946049BA6
:1021B00040F20862C2F2004203921268FEF7A2F8EF
:1021C0000299039A049BDDF814C0ACF80400086877
:1021D00049681268FEF796F810461946049B40F2CB
:1021E0000C62C2F200421268FEF78CF80599C880B2
:1021F00006B080BD00000000704700000000000035
:1022000082B0EFF3108072B601901DF089F80000E3
:1022100080B58AB04FF47A7005F0FAFC40F21C6089
:10222000C2F20040FFF790F843F2FC50C2F20040C7
:1022300007900DF0E5FF079802680F211162016811
:10224000496A0991099941F25A01C2F200419C225E
:102250000DF05AFD43F29060C2F20040D0F88000C9
:1022600000681021C4F20201884200F0D180FFE72B
:1022700043F29060C2F20040D0F88000006828214C
:10228000C4F20201884200F0C380FFE743F290608D
:10229000C2F20040D0F8800000684021C4F2020180
:1022A000884200F0B580FFE743F29060C2F2004040
:1022B000D0F8800000685821C4F20201884200F082
:1022C000A780FFE743F29060C2F20040D0F88000A0
:1022D00000687021C4F20201884200F09980FFE793
:1022E00043F29060C2F20040D0F88000006888217C
:1022F000C4F20201884200F08B80FFE743F2906055
:10230000C2F20040D0F880000068A021C4F20201AF
:1023100088427DD0FFE743F29060C2F20040D0F8DF
:1023200080000068B821C4F20201884270D0FFE743
:1023300043F29060C2F20040D0F88000006840F2A2
:102340001041C4F20201884262D0FFE743F290607C
:10235000C2F20040D0F88000006840F22841C4F288
:102360000201884254D0FFE743F29060C2F200407D
:10237000D0F88000006840F24041C4F20201884277
:1023800046D0FFE743F29060C2F20040D0F88000F0
:10239000006840F25841C4F20201884238D0FFE799
:1023A00043F29060C2F20040D0F88000006840F232
:1023B0007041C4F2020188422AD0FFE743F29060E4
:1023C000C2F20040D0F88000006840F28841C4F2B8
:1023D000020188421CD0FFE743F29060C2F2004045
:1023E000D0F88000006840F2A041C4F202018842A7
:1023F0000ED0FFE743F29060C2F20040D0F88000B8
:10240000006840F2B841C4F2020188420CD1FFE7F3
:1024100043F29060C2F20040D0F880000168086882
:1024200020F0080008600BE043F29060C2F2004028
:10243000D0F880000168086820F004000860FFE719
:1024400043F64C00C2F2004006900DF0D9FE06980B
:1024500002680F2111620168496A0891089940F2E7
:102460000001C2F2004112220DF04EFC0698D0F895
:10247000800000681021C4F20201884200F0D1807F
:10248000FFE743F64C00C2F20040D0F8800000683D
:102490002821C4F20201884200F0C380FFE743F61E
:1024A0004C00C2F20040D0F8800000684021C4F225
:1024B0000201884200F0B580FFE743F64C00C2F20B
:1024C0000040D0F8800000685821C4F20201884220
:1024D00000F0A780FFE743F64C00C2F20040D0F8BE
:1024E000800000687021C4F20201884200F09980E7
:1024F000FFE743F64C00C2F20040D0F880000068CD
:102500008821C4F20201884200F08B80FFE743F685
:102510004C00C2F20040D0F880000068A021C4F254
:10252000020188427DD0FFE743F64C00C2F2004032
:10253000D0F880000068B821C4F20201884270D04F
:10254000FFE743F64C00C2F20040D0F8800000687C
:1025500040F21041C4F20201884262D0FFE743F624
:102560004C00C2F20040D0F88000006840F22841E0
:10257000C4F20201884254D0FFE743F64C00C2F295
:102580000040D0F88000006840F24041C4F20201EF
:10259000884246D0FFE743F64C00C2F20040D0F834
:1025A0008000006840F25841C4F20201884238D0ED
:1025B000FFE743F64C00C2F20040D0F8800000680C
:1025C00040F27041C4F2020188422AD0FFE743F68C
:1025D0004C00C2F20040D0F88000006840F2884110
:1025E000C4F2020188421CD0FFE743F64C00C2F25D
:1025F0000040D0F88000006840F2A041C4F202011F
:1026000088420ED0FFE743F64C00C2F20040D0F8FB
:102610008000006840F2B841C4F2020188420CD147
:10262000FFE743F64C00C2F20040D0F8800001689A
:10263000086820F0080008600BE043F64C00C2F286
:102640000040D0F880000168086820F004000860AD
:10265000FFE7FFF731FD43F2B050C2F200400CF04B
:102660009FFD00F055F800F0ABF800F0F9F840F6E7
:102670000000C5F602004FF400410122059207F068
:102680004BF843F23440C2F2004001900021049123
:102690000DF08EF90198082102910DF089F9049945
:1026A00043F2CC40C2F2004003900DF081F9029950
:1026B00003980DF07DF9FEF73BFC40F6E041C2F2D5
:1026C00000414FF080404865C1F8B400C1F81401E2
:1026D000C1F87401C1F8D401C1F83402642005F0D6
:1026E00097FA0499059840F29042C2F200424CF2E7
:1026F0008F23C3F6F543936403235370D17043F6DD
:102700001831C2F2004108700AB080BD000000001C
:1027100080B58AB00020029003900221049101212B
:1027200005910690079042F66040C2F2004002A96F
:1027300005F082FB18B1FFE7FFF762FDFFE768468F
:102740000023036042F66040C2F2004002221146BC
:1027500005F0FEFB18B1FFE7FFF752FDFFE7012090
:10276000C0F280300190019942F66040C2F2004010
:10277000002205F071FA18B1FFE7FFF741FDFFE70E
:1027800042F66040C2F2004006F00EFD18B1FFE7CD
:10279000FFF736FDFFE70AB080BD00000000000033
:1027A00080B542F66040C2F2004005F0B9FD80BD40
:1027B00080B542F66040C2F2004005F0B1FD80BD38
:1027C00080B58AB000200290039002210491059107
:1027D0000690079042F60050C2F2004002A905F0B0
:1027E0002BFB18B1FFE7FFF70BFDFFE7684600235F
:1027F000036042F60050C2F200400222114605F08A
:10280000A7FB18B1FFE7FFF7FBFCFFE742F600501C
:10281000C2F200401021002205F01EFA18B1FFE7B5
:10282000FFF7EEFCFFE742F60050C2F2004006F070
:10283000BBFC18B1FFE7FFF7E3FCFFE70AB080BD80
:1028400080B542F60050C2F2004005F069FD80BD3F
:1028500080B542F60050C2F2004005F061FD80BD37
:1028600080B58AB0002002900390022104910121DA
:1028700005910690079042F6A050C2F2004002A9CE
:1028800005F0DAFA18B1FFE7FFF7BAFCFFE7684690
:102890000023036042F6A050C2F20040022211461B
:1028A00005F056FB18B1FFE7FFF7AAFCFFE742F679
:1028B000A050C2F200400121002205F0CDF918B16C
:1028C000FFE7FFF79DFCFFE742F6A050C2F2004091
:1028D00006F06AFC18B1FFE7FFF792FCFFE70AB0C9
:1028E00080BD00000000000080B542F6A050C2F29A
:1028F000004005F015FD80BD80B542F6A050C2F243
:10290000004005F00DFD80BD84B002900298406B40
:10291000009002980068D0F884004FF6FC7188435C
:10292000009940EA810002990968C1F88400029880
:102930000068D0F8840020F47F00029A1168926B3E
:1029400040EA0240C1F884000298816B0098084474
:10295000009002980068D0F888006FF38F0000990B
:1029600040EA810002990968C1F88800029800686D
:10297000D0F8880020F4FE00029A1168D26B40EA79
:102980000240C1F888000298C16B009800EB41003A
:10299000009002980068D0F8A0006FF38F000099B3
:1029A00040EA810002990968C1F8A0000298006815
:1029B000D0F8A00020F4FE00029A1168126C40EAE0
:1029C0000240C1F8A0000299086C496C009A00FB13
:1029D0000120009002980068D0F8B0006FF38F00DB
:1029E000009940EA810002990968C1F8B000029894
:1029F0000068D0F8B00020F4FE00029A1168926CD2
:102A000040EA0240C1F8B0000299886CC96C009A93
:102A100000FB0120009002980068D0F8AC006FF332
:102A20008F00009940EA810002990968C1F8AC0062
:102A30000299086D496D009A00FB012000900298F0
:102A40000068D0F8F0006FF38F00009940EA810031
:102A500002990968C1F8F00002980068D0F8F00007
:102A600020F47C10029A1168926D40EA0240C1F88D
:102A7000F0000298816D009800EB410000900298F0
:102A80000068D0F8C0006FF38F00009940EA810021
:102A900002990968C1F8C00002980068D0F8C00027
:102AA00020F47C10029A1168D26D40EA0240C1F80D
:102AB000C00002980068D0F8C00020F07C50029A54
:102AC0001168126E40EA0260C1F8C00002994A6BB8
:102AD0004AF60040C4F2000000EB8200C86602998A
:102AE0008A6BC86E00EB820008670299CA6B086F98
:102AF00000EBC200486702990A6C4B6C486F5A435E
:102B000000EB8200886702998A6CCB6C886F5A430D
:102B100000EB8200C86702990A6D4B6DC86F5A437B
:102B200000EB8200C1F8800002998A6DD1F8800024
:102B300000EBC200C1F884000299CA6D8B6ED1F817
:102B400084005A4300EB8200C1F8880002990A6EA3
:102B50008B6ED1F888005A4300EB8200C1F89000D8
:102B60000298D0F890004DF2FD31C4F20001884285
:102B70000FD3FFE70299D1F89C0040F02000C1F884
:102B80009C000299032081F8980001208DF80F0025
:102B900017E00298C06E0190FFE701980299D1F802
:102BA0009010884208D2FFE7019900200860FFE7F3
:102BB000019804300190F0E7FFE700208DF80F0046
:102BC000FFE79DF80F0004B0704700000000000010
:102BD00088B007900691059204930698406848B91A
:102BE000FFE70698016882680069104340EA814067
:102BF000039009E006980168826800691043084361
:102C000040F080400390FFE70698D0F820C0C168EC
:102C100042698369C06940EA0C601843104340EA86
:102C2000014002900798826ED0F8840004995143C5
:102C300000EB81000190039801990860019804302D
:102C400001900298019908600198043001900020D9
:102C50000090FFE700980699CA6843F64561C0F600
:102C60000201895C88420DD2FFE70598009940581F
:102C700001990860019804300190FFE70098043042
:102C80000090E7E708B0704783B002900191029886
:102C9000017B807B00EB4000084404380146009132
:102CA000082800F2F0800099DFE801F005682AEAC0
:102CB000ECEB69E9BE000298B0F9060000EE100ADC
:102CC000B8EEC00A9FED7F1A20EE010A019880ED50
:102CD000180A0298B0F90200800000EE100AB8EE5F
:102CE000C00A019880ED160A0298B0F9040040006D
:102CF00000EE100AB8EEC00A019880ED170AC2E093
:102D00000298B0F9040000EE100AB8EEC00A9FED78
:102D10006C1A20EE010AB7EEC00A9FED611B80EE2F
:102D2000011B019890ED200B9FED5F2BA1EE020B94
:102D300080ED200B0298B0F9080000EE100AB8EE02
:102D4000C00AB7EEC00AB3EE031B20EE010B9FEDE5
:102D5000581B20EE010B9FED581B80EE010B0198D4
:102D6000BDEEC00B80ED220A0298B0F90620019951
:102D7000D1F88C001044C1F88C0084E083E0029804
:102D8000B0F9020000EE100AB8EEC00AB7EEC01AA1
:102D9000019890ED190AB7EEC00A9FED3F2BA1EE06
:102DA000020BB7EEC00B80ED190A0298B0F90400CF
:102DB00000EE100AB8EEC00AB7EEC01A019890ED06
:102DC0001A0AB7EEC00A9FED322BA1EE020BB7EE46
:102DD000C00B80ED1A0A0298B0F9060000EE100A46
:102DE000B8EEC00AB7EEC01A019890ED1B0AB7EE14
:102DF000C00AA1EE020BB7EEC00B80ED1B0A0298D1
:102E0000B0F9080000EE100AB8EEC00AB7EEC01A1A
:102E1000019890ED1C0AB7EEC00AA1EE020BB7EEC6
:102E2000C00B80ED1C0A2EE00298B0F9020000EE03
:102E3000100AB8EEC00AB7EEC01A019890ED1D0A4C
:102E4000B7EEC00A9FED122BA1EE020BB7EEC00B3E
:102E500080ED1D0A0298B0F9040000EE100AB8EEE9
:102E6000C00AB7EEC01A019890ED1E0AB7EEC00A6C
:102E7000A1EE020BB7EEC00B80ED1E0A03E002E0EC
:102E800001E000E0FFE703B0704700BF00BF00BFF4
:102E90002D431CEBE2360A3F2D431CEBE2360ABF02
:102EA0000000000000806640FCA9F1D24D6250BFD6
:102EB0000000000000507D400000000000A08440A1
:102EC000DB0F49409A99193F82B001900091019817
:102ED000B0F9070000EE100AB8EEC00A9FED261AFE
:102EE00080EE010A009880ED290A0198B0F90900E6
:102EF00000EE100AB8EEC00A80EE010A009880EDDC
:102F00002A0A0198B0F90B0000EE100AB8EEC00AC8
:102F100080EE010A009880ED2B0A0198B0F90D00AF
:102F200000EE100AB8EEC00A80EE010A009880EDAB
:102F30002C0A0198B0F90F0000EE100AB8EEC00A92
:102F400080EE010A009880ED2D0A0198B0F9110079
:102F500000EE100AB8EEC00A80EE010A009880ED7B
:102F60002E0A0198C07C0099C8700198007D0099D4
:102F700081F8BC0002B0704700007A4400000000F5
:102F800084B002900191ADF80220029828B9FFE7C1
:102F90004FF6FF70ADF80E0021E0FFE70198411EEB
:102FA0000191B8B1FFE70298411C029100788DF8B9
:102FB0000100BDF802109DF801004840C2B248F679
:102FC000AC50C0F6020030F8120080EA1120ADF8D3
:102FD0000200E3E7BDF80200ADF80E00FFE7BDF820
:102FE0000E0004B07047000082B00190ADF80210EE
:102FF0008DF80120FFE7BDF80200411EADF8021078
:1030000098B1FFE79DF8010001994A1C01920978E7
:1030100048408DF800009DF8001043F63550C0F68A
:103020000200405C8DF80100E5E79DF8010002B068
:10303000704700000000000080B584B04EF600002C
:10304000C1F6F170006803904EF60400C1F6F1700D
:10305000006802904EF60800C1F6F1700068019019
:103060000199039808440390039888B1FFE70398F7
:1030700040F26041C2F200410091023108220EF09C
:10308000ABFA00990298123104220EF0A5FAFFE77C
:1030900004B080BD0000000080B5AAB02890279140
:1030A00000208DF89B002798006808B1FFE7FFE734
:1030B000FFE7289890F85C00012804D1FFE7022080
:1030C0008DF8A7002DE12899012081F85C00FFE729
:1030D000FFE70020219022902898006842F200012A
:1030E000C4F20201884206D1FFE742F20010C4F2A6
:1030F0000200099002E000200990FFE7099878B9E2
:10310000FFE72899086E40F020000866FFE728993D
:10311000002081F85C00FFE701208DF8A70000E1A6
:1031200009980EF0DDFD0890289800680EF0D8FD93
:10313000002840F0E280FFE70898002840F0DD809A
:10314000FFE728980168012042F20002C4F202025F
:10315000914207900CD0FFE7289800684DF6007167
:10316000CBF6FD710844B0FA80F040090790FFE704
:103170000798C10746F20030C5F6020000291CBFBF
:1031800042F20030C4F2020025902798006800281F
:103190005ED0FFE72598806820F440402799496871
:1031A00008432599886028980168012042F20002AE
:1031B000C4F20202914206900CD0FFE72898006802
:1031C0004DF60071CBF6FD710844B0FA80F040096D
:1031D0000690FFE70698C10746F20030C5F60200E8
:1031E00000291CBF42F20030C4F2020042F200315A
:1031F000C4F20201884212D1FFE742F20000C4F299
:1032000002000EF055FD049042F20010C4F20200DC
:103210000EF04EFD014604980843059007E046F283
:103220000000C5F602000EF043FD0590FFE705988B
:1032300068B9FFE72598806840F61F718843279A90
:10324000116892681143084325998860FFE753E0AD
:103250002599886820F440408860289801680120FA
:1032600042F20002C4F20202914203900CD0FFE746
:10327000289800684DF60071CBF6FD710844B0FA4D
:1032800080F040090390FFE70398C10746F2003041
:10329000C5F6020000291CBF42F20030C4F2020051
:1032A00042F20031C4F20201884212D1FFE742F239
:1032B0000000C4F202000EF0FBFC019042F200108C
:1032C000C4F202000EF0F4FC01460198084302909B
:1032D00007E046F20000C5F602000EF0E9FC02909D
:1032E000FFE7029838B9FFE72599886840F61F7212
:1032F00090438860FFE7FFE708E02899086E40F0F8
:103300002000086601208DF89B00FFE7FFE7289961
:10331000002081F85C00FFE79DF89B008DF8A70076
:10332000FFE79DF8A7002AB080BD00000000000064
:1033300080B5CCB02A90299100208DF8A30025906B
:103340002A9890F84400012801D1FFE70BE02A9861
:10335000006846F20001C5F60201884201D1FFE78C
:1033600000E0FFE7FFE72998C0680021C4F2FF7181
:10337000884201D0FFE71EE02A98006842F200016F
:10338000C4F20201884201D1FFE7FFE72A980068F2
:1033900042F20011C4F20201884201D1FFE7FFE7C7
:1033A0002A98006846F20001C5F60201884201D160
:1033B000FFE7FFE7FFE7FFE72A9890F85C000128A6
:1033C00005D1FFE702208DF8AF0000F07DBD2A99FE
:1033D000012081F85C00FFE7FFE72A9800680EF003
:1033E00077FC002840F05C85FFE72998C07800064C
:1033F000002837D4FFE72A98006846F20001C5F696
:10340000020188422DD0FFE729980068000330B9F7
:10341000FFE729980068C0F38460229015E029989E
:10342000006890FAA0F04A904A9820B9FFE720205F
:103430008DF82F0105E04A98B0FA80F08DF82F0141
:10344000FFE79DF82F012290FFE7229800F01F016F
:10345000012000FA01F22A980168C8691043C86186
:10346000FFE7FFE72A98006829990A6849680EF083
:103470003FFC2A9800680EF02BFC24902A980068E4
:103480000EF0FEFB23902498002840F05A82FFE7BC
:103490002398002840F05582FFE72A980068299A6F
:1034A000116892680EF044FC2A98006846F2000108
:1034B000C5F6020188420BD1FFE7299840692A9995
:1034C0000968C96801F0180189088840279038E028
:1034D00041F20000C5F60040006800F07040B0F115
:1034E000805F0BD1FFE7299840692A990968C9686C
:1034F00001F01C014908884021901FE02A980068CB
:10350000C068C00600280BD4FFE7299840692A99B3
:103510000968C96801F01C014908884020900AE048
:10352000299840692A990968C96801F01001490879
:1035300088402090FFE720982190FFE7219827906E
:10354000FFE729980069042841D0FFE72A9800681E
:1035500029990A680969279B0EF072FC2A9800686D
:1035600046F20001C5F60201884215D1FFE72A980C
:103570000068299A1169D2690EF0B2FC2A98006895
:10358000299A116992F82020013AB2FA82F252097E
:1035900052060EF085FC19E02A980068299A1169F4
:1035A00092F82120013AB2FA82F25209D2070EF0C3
:1035B000B7FC2A980068299A1169127E013AB2FA7A
:1035C00082F25209D2020EF027FCFFE7B8E12A98F6
:1035D000006846F20001C5F60201884240F06681AB
:1035E000FFE72A98006800210EF03AFB000348B973
:1035F000FFE72A98006800210EF032FBC0F38460D8
:103600001F9018E02A98006800210EF029FB90FA1C
:10361000A0F04890489820B9FFE720208DF82701B6
:1036200005E04898B0FA80F08DF82701FFE79DF893
:1036300027011F90FFE71F981E902998006800033C
:1036400030B9FFE729980068C0F384601D9015E049
:103650002998006890FAA0F04690469820B9FFE7B4
:1036600020208DF81F0105E04698B0FA80F08DF813
:103670001F01FFE79DF81F011D90FFE71E981D9990
:10368000884207D1FFE72A980068002211460EF011
:1036900067FCFFE72A98006801210EF0E1FA0003B9
:1036A00048B9FFE72A98006801210EF0D9FAC0F363
:1036B00084601C9018E02A98006801210EF0D0FA6E
:1036C00090FAA0F04490449820B9FFE720208DF8AC
:1036D000170105E04498B0FA80F08DF81701FFE774
:1036E0009DF817011C90FFE71C981B902998006813
:1036F000000330B9FFE729980068C0F384601A908E
:1037000015E02998006890FAA0F04290429820B9FC
:10371000FFE720208DF80F0105E04298B0FA80F015
:103720008DF80F01FFE79DF80F011A90FFE71B9836
:103730001A99884207D1FFE72A98006801210022E0
:103740000EF00EFCFFE72A98006802210EF088FABE
:10375000000348B9FFE72A98006802210EF080FABA
:10376000C0F38460199018E02A98006802210EF0D6
:1037700077FA90FAA0F04090409820B9FFE7202017
:103780008DF8070105E04098B0FA80F08DF8070148
:10379000FFE79DF807011990FFE7199818902998FD
:1037A0000068000330B9FFE729980068C0F384601F
:1037B000179015E02998006890FAA0F03E903E9886
:1037C00020B9FFE720208DF8FF0005E03E98B0FA11
:1037D00080F08DF8FF00FFE79DF8FF001790FFE7EE
:1037E00018981799884207D1FFE72A9800680221A4
:1037F00000220EF0B5FBFFE72A98006803210EF0C7
:103800002FFA000348B9FFE72A98006803210EF059
:1038100027FAC0F38460169018E02A980068032104
:103820000EF01EFA90FAA0F03C903C9820B9FFE709
:1038300020208DF8F70005E03C98B0FA80F08DF874
:10384000F700FFE79DF8F7001690FFE71698159030
:1038500029980068000330B9FFE729980068C0F391
:103860008460149015E02998006890FAA0F03A90CE
:103870003A9820B9FFE720208DF8EF0005E03A984C
:10388000B0FA80F08DF8EF00FFE79DF8EF0014909C
:10389000FFE715981499884207D1FFE72A98006836
:1038A000032100220EF05CFBFFE748E02A98006845
:1038B000006E00F0F84029990968B0EB816F07D1DC
:1038C000FFE72A980168086E20F000400866FFE7CD
:1038D0002A980068406E00F0F84029990968B0EB1A
:1038E000816F07D1FFE72A980168486E20F00040F9
:1038F0004866FFE72A980068806E00F0F840299932
:103900000968B0EB816F07D1FFE72A980168886EDC
:1039100020F000408866FFE72A980068C06E00F03B
:10392000F84029990968B0EB816F07D1FFE72A9821
:103930000168C86E20F00040C866FFE7FFE7FFE7B8
:10394000FFE72A9800680EF0ABF9002840F0A78244
:10395000FFE72A980068299A1168D2680EF004FAE5
:103960002998C0680021C4F2FF71884240F0338179
:10397000FFE72A980068139029980068000330B97F
:10398000FFE729980068C0F38460129015E0299839
:10399000006890FAA0F03890389820B9FFE720200E
:1039A0008DF8E70005E03898B0FA80F08DF8E70070
:1039B000FFE79DF8E7001290FFE71298013000F052
:1039C0001F0009287DD8FFE729980068000330B957
:1039D000FFE729980068C0F38460119015E02998EA
:1039E000006890FAA0F03690369820B9FFE72020C2
:1039F0008DF8DF0005E03698B0FA80F08DF8DF0032
:103A0000FFE79DF8DF001190FFE71198013000F00B
:103A10001F008006109029980068000330B9FFE766
:103A200029980068C0F384600F9015E02998006819
:103A300090FAA0F03490349820B9FFE720208DF858
:103A4000D70005E03498B0FA80F08DF8D700FFE792
:103A50009DF8D7000F90FFE710980F99013101F002
:103A60001F020121914008430E902998006800032D
:103A700030B9FFE729980068C0F384600D9015E025
:103A80002998006890FAA0F03290329820B9FFE7A8
:103A900020208DF8CF0005E03298B0FA80F08DF844
:103AA000CF00FFE79DF8CF000D90FFE70E980D992E
:103AB000013101F01F0101EB410140EA01500C907E
:103AC00082E029980068000330B9FFE72998006870
:103AD000C0F384600B9015E02998006890FAA0F07C
:103AE0003090309820B9FFE720208DF8C70005E01E
:103AF0003098B0FA80F08DF8C700FFE79DF8C70056
:103B00000B90FFE70B98013000F01F0080060A9031
:103B100029980068000330B9FFE729980068C0F3CE
:103B20008460099015E02998006890FAA0F02E9022
:103B30002E9820B9FFE720208DF8BF0005E02E98D1
:103B4000B0FA80F08DF8BF00FFE79DF8BF00099044
:103B5000FFE70A980999013101F01F020121914004
:103B60000843089029980068000330B9FFE72998B6
:103B70000068C0F38460079015E02998006890FA07
:103B8000A0F02C902C9820B9FFE720208DF8B700EA
:103B900005E02C98B0FA80F08DF8B700FFE79DF8AB
:103BA000B7000790FFE708990798013000F01F0061
:103BB00000EB40020020CFF6206000EB02500843EB
:103BC00040F000700C90FFE713980C99299A9268C6
:103BD0000EF0AEF8FFE72998C0780006002840F103
:103BE0005D81FFE72A980168012042F20002C4F2D9
:103BF0000202914206900CD0FFE72A9800684DF629
:103C00000071CBF6FD710844B0FA80F040090690CF
:103C1000FFE70698C10746F20030C5F6020000290A
:103C20001CBF42F20030C4F202000EF011F82690E0
:103C30002A9801684FF0010042F20002C4F2020229
:103C4000914205900CD0FFE72A9800684DF600716C
:103C5000CBF6FD710844B0FA80F040090590FFE70B
:103C60000598C10746F20030C5F6020000291CBFC6
:103C700042F20030C4F2020042F20031C4F202010A
:103C8000884212D1FFE742F20000C4F202000EF0B7
:103C900007F8039042F20010C4F202000EF000F8A0
:103CA000014603980843049007E046F20000C5F679
:103CB00002000DF0F5FF0490FFE70498002840F0A3
:103CC000E380FFE7299800680021CCF25271884216
:103CD00055D1FFE79DF89A00000600284FD4FFE772
:103CE0002A98006846F20001C5F60201884245D1D3
:103CF000FFE72A980168012042F20002C4F20202A2
:103D0000914202900CD0FFE72A9800684DF60071AE
:103D1000CBF6FD710844B0FA80F040090290FFE74D
:103D20000298C10746F20030C5F6020000291CBF08
:103D300042F20030C4F20200269941F400010EF074
:103D40005BF840F2A430C2F2004000684FEA9010E5
:103D500042F66351C0F23E51A0FB01104FEA9011B0
:103D60004FF0020000EB41002590FFE7259820B1BD
:103D7000FFE7259801382590F8E7FFE783E02998C9
:103D800000680021CCF22131884238D1FFE79DF84C
:103D90009B00C00798BBFFE72A98006846F2000125
:103DA000C5F60201884229D1FFE72A98016801205F
:103DB00042F20002C4F20202914201900CD0FFE7ED
:103DC0002A9800684DF60071CBF6FD710844B0FAF0
:103DD00080F040090190FFE70198C10746F20030EA
:103DE000C5F6020000291CBF42F20030C4F20200F6
:103DF000269941F080710DF0FFFFFFE742E029981E
:103E000000680021CCF68431884239D1FFE79DF863
:103E10009A004006002833D4FFE72A98006846F24B
:103E20000001C5F60201884229D1FFE72A980168FE
:103E3000012042F20002C4F20202914200900CD032
:103E4000FFE72A9800684DF60071CBF6FD71084433
:103E5000B0FA80F040090090FFE70098C10746F2F1
:103E60000030C5F6020000291CBF42F20030C4F247
:103E70000200269941F480010DF0BEFFFFE700E04B
:103E8000FFE7FFE7FFE708E02A99086E40F020000F
:103E9000086601208DF8A300FFE7FFE7FFE708E0D1
:103EA0002A99086E40F02000086601208DF8A300D2
:103EB000FFE7FFE72A99002081F85C00FFE79DF803
:103EC000A3008DF8AF00FFE79DF8AF004CB080BDB8
:103ED00010B590B00E9000208DF837000A900E9823
:103EE00020B9FFE701208DF83F006EE20E980069CF
:103EF00040B1FFE70E9890F82000012801D1FFE7BC
:103F0000FFE7FFE70E98006E50B9FFE70E9800F04C
:103F100063FA0E99002048660E9981F85C00FFE76D
:103F20000E9800680DF0B4FE28B1FFE70E98006807
:103F30000DF072FEFFE70E9800680DF0C1FEE8B9C3
:103F4000FFE70E9800680DF073FE40F2A430C2F255
:103F500000400068800942F66351C0F23E51A0FB68
:103F60000101012000EB91100A90FFE70A9820B1AF
:103F7000FFE70A9801380A90F8E7FFE70E98006813
:103F80000DF09EFE70B9FFE70E99086E40F010002C
:103F900008660E99486E40F00100486601208DF8D1
:103FA0003700FFE70E9800680DF092FE0B900E9818
:103FB000006EC006002800F1FA81FFE70B98002888
:103FC00040F0F581FFE70E98006E40F0020020F40B
:103FD00080700E9908660E9800680DF061FE00284A
:103FE00070D1FFE70E980168012042F20002C4F28E
:103FF0000202914207900CD0FFE70E9800684DF640
:104000000071CBF6FD710844B0FA80F040090790CA
:10401000FFE70798C10746F20030C5F60200002905
:104020001CBF42F20030C4F2020042F20031C4F27E
:104030000201884212D1FFE742F20000C4F20200FE
:104040000DF02EFE059042F20010C4F202000DF0B9
:1040500027FE014605980843069007E046F2000057
:10406000C5F602000DF01CFE0690FFE7069840BB67
:10407000FFE70E980168012042F20002C4F202023A
:10408000914204900CD0FFE70E9800684DF6007145
:10409000CBF6FD710844B0FA80F040090490FFE7C8
:1040A0000498C10746F20030C5F6020000291CBF83
:1040B00042F20030C4F202000E9949680DF08CFE05
:1040C000FFE7FFE70E98006846F20001C5F602011F
:1040D00088423AD1FFE70E9A517ED06B40EA4131D7
:1040E0009068D26811430391082803D1FFE70020AC
:1040F00002901DE00E9880680C2803D1FFE7042091
:10410000019012E00E9880681C2803D1FFE7082078
:10411000009007E00E9881680020182908BF1C2035
:104120000090FFE700980190FFE701980290FFE7F9
:104130000398029901F00C0140EA41000E9991F8B0
:10414000201040EA01400C900CE00E994A7EC86BAA
:1041500040EA42308A68104391F8201040EA01405A
:104160000C90FFE70E9890F8200001280BD1FFE794
:104170000E98416A0020CFF6FE7000EB41410C988A
:1041800008430C90FFE70E98806A50B1FFE70E9944
:10419000886AC96A00F4787001430C9808430C904F
:1041A000FFE70E98006846F20001C5F6020188425A
:1041B00018D1FFE70E980068C06844F20701CFF6F7
:1041C000F07108400C9908430E990968C8600E9870
:1041D0000068006920F040600E9A1168526B10432D
:1041E00008610DE00E980068C0684CF20301CFF63C
:1041F000F07108400C9908430E990968C860FFE700
:104200000E9800680DF064FD09900E9800680DF09E
:1042100037FD08900998002840F0A880FFE708982B
:10422000002840F0A380FFE70E98006846F20001E6
:10423000C5F60201884209D1FFE70E99087E91F880
:104240003810800340EA41000C9006E00E98017E91
:10425000006B40EA81300C90FFE70E980068C06860
:1042600044F2030188430C9908430E990968C86019
:104270000E9890F84400012859D1FFE70E98006885
:1042800046F20001C5F60201884201D1FFE700E0D5
:10429000FFE70E98806A20B1FFE70E98C06A08B960
:1042A000FFE7FFE70E98006846F20001C5F602013D
:1042B00088421BD1FFE70E98006800694FF61E0187
:1042C000CFF6004100EA01020E9B1968986CD3F802
:1042D0004CE0D3F850C040EA0E0040EA0C005B6DA1
:1042E0001843104340F0010008611FE00E98006879
:1042F00000694FF61E01CFF6004100EA01020E9B55
:1043000019689C6CD3F84CE0D3F850C00020CFF66D
:10431000FF7000EB044040EA0E0040EA0C005B6DC9
:104320001843104340F001000861FFE706E00E98D3
:104330000168086920F001000861FFE70E98006835
:10434000006920F070400E9A1168126C10430861E9
:104350000E98006846F20001C5F60201884204D0BA
:10436000FFE70E98FCF7E4F8FFE7FFE70E98006917
:1043700001280CD1FFE70E980068006B20F00F00B9
:104380000E9A1168D269013A1043086306E00E984C
:104390000168086B20F00F000863FFE70E98006EBD
:1043A00040F0010020F002000E99086608E00E9926
:1043B000086E40F01000086601208DF83700FFE716
:1043C0009DF837008DF83F00FFE79DF83F0010B0E3
:1043D00010BD00000000000080B5BCB03B90002084
:1043E0003A90399038903790369008A8B821FBF76A
:1043F000D3FF3B98006842F20001C4F202018842F8
:1044000040F09180FFE7002009904FF400210891CF
:1044100002210A9110220B920C910D910E91C02154
:104420000F9110901190309008A807F075FE18B108
:10443000FFE7FDF7E5FEFFE7FFE744F2D840C5F6EA
:104440000200016841F020010160006800F02000D6
:1044500007900798FFE7FFE744F2E040C5F6020047
:10446000016841F001010160006800F00100069060
:104470000698FFE7FFE744F2E040C5F60200016856
:1044800041F004010160006800F004000590059807
:10449000FFE7202036900320019037900020039002
:1044A00038900020C5F6020036A9029104F060FFA2
:1044B000019A02990398102336933792389040F668
:1044C0000000C5F6020004F053FF039942F6901075
:1044D000C2F2004004902822C4F2020202600922C3
:1044E00042608160C1604FF4806202614FF40062FB
:1044F00042614FF4005282614FF48072C2610162E6
:10450000416202F051FB18B1FFE7FDF779FEFFE7CA
:10451000FFE73B9842F69011C2F2004181653B985B
:104520008863FFE7FFE73CB080BD000000000000AB
:1045300080B58AB0089005F007F90490089828B96A
:10454000FFE701208DF8270000F0AABC089890F83A
:10455000350002280ED0FFE7089980204865FFE764
:104560000899002081F83400FFE701208DF827002A
:1045700000F096BC0898016801201022C4F20202E3
:104580009142039000F0A380FFE7089801680120A2
:104590002822C4F202029142039000F09880FFE7C3
:1045A0000898016801204022C4F20202914203905F
:1045B00000F08D80FFE70898016801205822C4F2BE
:1045C00002029142039000F08280FFE708980168A0
:1045D00001207022C4F202029142039077D0FFE7DB
:1045E0000898016801208822C4F2020291420390D7
:1045F0006DD0FFE7089801680120A022C4F20202F2
:104600009142039063D0FFE7089801680120B82227
:10461000C4F202029142039059D0FFE70898016862
:10462000012040F21042C4F20202914203904ED0A7
:10463000FFE708980168012040F22842C4F2020214
:104640009142039043D0FFE708980168012040F2AF
:104650004042C4F202029142039038D0FFE708982A
:104660000168012040F25842C4F2020291420390D4
:104670002DD0FFE708980168012040F27042C4F293
:1046800002029142039022D0FFE7089801680120BE
:1046900040F28842C4F202029142039017D0FFE731
:1046A00008980168012040F2A042C4F2020291423F
:1046B00003900CD0FFE7089800684FF64831CBF61E
:1046C000FD710844B0FA80F040090390FFE70398B9
:1046D000C00780B1FFE708980168086820F01E0055
:1046E000086008980168486920F0800048610898CF
:1046F0000068059009E008980168086820F00E003D
:104700000860089800680590FFE708980168012094
:104710001022C4F202029142029000F00381FFE7EE
:104720000898016801202822C4F2020291420290F6
:1047300000F0F880FFE70898016801204022C4F2E9
:1047400002029142029000F0ED80FFE708980168B4
:1047500001205822C4F202029142029000F0E2804D
:10476000FFE70898016801207022C4F2020291421A
:10477000029000F0D780FFE70898016801208822A6
:10478000C4F202029142029000F0CC80FFE7089848
:1047900001680120A022C4F202029142029000F0BE
:1047A000C180FFE7089801680120B822C4F2020224
:1047B0009142029000F0B680FFE70898016801205E
:1047C00040F21042C4F202029142029000F0AA802C
:1047D000FFE708980168012040F22842C4F2020273
:1047E0009142029000F09E80FFE708980168012046
:1047F00040F24042C4F202029142029000F09280E4
:10480000FFE708980168012040F25842C4F2020212
:104810009142029000F08680FFE70898016801202D
:1048200040F27042C4F20202914202907AD0FFE755
:1048300008980168012040F28842C4F202029142C5
:1048400002906FD0FFE708980168012040F2A04273
:10485000C4F202029142029064D0FFE70898016816
:10486000012040F2B842C4F202029142029059D0B3
:10487000FFE708980168012045F20842C5F60202E8
:10488000914202904ED0FFE708980168012045F25E
:104890001C42C5F602029142029043D0FFE70898FD
:1048A0000168012045F23042C5F6020291420290B1
:1048B00038D0FFE708980168012045F24442C5F668
:1048C0000202914202902DD0FFE708980168012072
:1048D00045F25842C5F602029142029022D0FFE70B
:1048E00008980168012045F26C42C5F60202914227
:1048F000029017D0FFE708980168012045F2804236
:10490000C5F60202914202900CD0FFE708980068B9
:104910004AF66C31CAF2FD710844B0FA80F04009E1
:104920000290FFE70298C00738B1FFE70898016ED0
:10493000086820F480700860FFE70898006810217C
:10494000C4F20201884200F08180FFE70898006805
:104950002821C4F20201884278D0FFE70898006855
:104960004021C4F20201884270D0FFE70898006835
:104970005821C4F20201884268D0FFE70898006815
:104980007021C4F20201884260D0FFE708980068F5
:104990008821C4F20201884258D0FFE708980068D5
:1049A000A021C4F20201884250D0FFE708980068B5
:1049B000B821C4F20201884248D0FFE70898006895
:1049C00040F21041C4F2020188423FD0FFE708984C
:1049D000006840F22841C4F20201884236D0FFE765
:1049E0000898006840F24041C4F2020188422DD08C
:1049F000FFE70898006840F25841C4F2020188427B
:104A000024D0FFE70898006840F27041C4F2020128
:104A100088421BD0FFE70898006840F28841C4F242
:104A20000201884212D0FFE70898006840F2A041D6
:104A3000C4F20201884209D0FFE70898006840F2FA
:104A4000B841C4F20201884207D1FFE70898016823
:104A5000086820F00100086006E00898016808680E
:104A600020F001000860FFE7FFE705980068C00735
:104A7000C8B1FFE704F068FE0499401A062811D374
:104A8000FFE70899202048650899032081F8350040
:104A9000FFE70899002081F83400FFE701208DF836
:104AA0002700FDE1E1E70898016801201022C4F227
:104AB00002029142019000F0A380FFE7089801688C
:104AC00001202822C4F202029142019000F0988055
:104AD000FFE70898016801204022C4F202029142D7
:104AE000019000F08D80FFE70898016801205822AE
:104AF000C4F202029142019000F08280FFE7089820
:104B0000016801207022C4F202029142019077D024
:104B1000FFE70898016801208822C4F2020291424E
:104B200001906DD0FFE7089801680120A022C4F22F
:104B300002029142019063D0FFE7089801680120CA
:104B4000B822C4F202029142019059D0FFE70898BE
:104B50000168012040F21042C4F202029142019029
:104B60004ED0FFE708980168012040F22842C4F2C5
:104B700002029142019043D0FFE7089801680120AA
:104B800040F24042C4F202029142019038D0FFE765
:104B900008980168012040F25842C4F20202914292
:104BA00001902DD0FFE708980168012040F2704283
:104BB000C4F202029142019022D0FFE708980168F6
:104BC000012040F28842C4F202029142019017D0C3
:104BD000FFE708980168012040F2A042C4F20202F7
:104BE000914201900CD0FFE7089800684FF64831D9
:104BF000CBF6FD710844B0FA80F040090190FFE760
:104C00000198C00760B1FFE70898806D0790089889
:104C1000C06D00F01F013F208840079988600BE0BD
:104C20000898806D06900898C06D00F01F01012063
:104C3000884006994860FFE7089801680120102223
:104C4000C4F202029142009000F00381FFE708984D
:104C5000016801202822C4F202029142009000F073
:104C6000F880FFE70898016801204022C4F20202A0
:104C70009142009000F0ED80FFE708980168012064
:104C80005822C4F202029142009000F0E280FFE755
:104C90000898016801207022C4F20202914200903B
:104CA00000F0D780FFE70898016801208822C4F24D
:104CB00002029142009000F0CC80FFE70898016862
:104CC0000120A022C4F202029142009000F0C180B3
:104CD000FFE7089801680120B822C4F2020291425D
:104CE000009000F0B680FFE708980168012040F2CC
:104CF0001042C4F202029142009000F0AA80FFE745
:104D000008980168012040F22842C4F20202914250
:104D1000009000F09E80FFE708980168012040F2B3
:104D20004042C4F202029142009000F09280FFE7FC
:104D300008980168012040F25842C4F202029142F0
:104D4000009000F08680FFE708980168012040F29B
:104D50007042C4F20202914200907AD0FFE70898B4
:104D60000168012040F28842C4F2020291420090A0
:104D70006FD0FFE708980168012040F2A042C4F21A
:104D800002029142009064D0FFE708980168012078
:104D900040F2B842C4F202029142009059D0FFE7BB
:104DA00008980168012045F20842C5F602029142C6
:104DB00000904ED0FFE708980168012045F21C42A0
:104DC000C5F602029142009043D0FFE708980168BF
:104DD000012045F23042C5F602029142009038D0DF
:104DE000FFE708980168012045F24442C5F6020237
:104DF000914200902DD0FFE708980168012045F20C
:104E00005842C5F602029142009022D0FFE708986E
:104E10000168012045F26C42C5F602029142009001
:104E200017D0FFE708980168012045F28042C5F6D7
:104E30000202914200900CD0FFE7089800684AF601
:104E40006C31CAF2FD710844B0FA80F0400900905C
:104E5000FFE70098C007A0B1FFE70898416E806E99
:104E600048600898C06E58B1FFE70898C16E08689E
:104E700020F4807008600898016F406F4860FFE779
:104E8000FFE70899012081F83500FFE70899002025
:104E900081F83400FFE7FFE700208DF82700FFE7E7
:104EA0009DF827000AB080BD80B586B004900498B4
:104EB00020B9FFE701208DF8170046E3049890F829
:104EC0003500022807D0FFE70499802048650120BB
:104ED0008DF8170039E30498016801201022C4F20C
:104EE00002029142029000F0A380FFE7049801685B
:104EF00001202822C4F202029142029000F0988020
:104F0000FFE70498016801204022C4F202029142A6
:104F1000029000F08D80FFE704980168012058227C
:104F2000C4F202029142029000F08280FFE70498EE
:104F3000016801207022C4F202029142029077D0EF
:104F4000FFE70498016801208822C4F2020291421E
:104F500002906DD0FFE7049801680120A022C4F2FE
:104F600002029142029063D0FFE704980168012099
:104F7000B822C4F202029142029059D0FFE704988D
:104F80000168012040F21042C4F2020291420290F4
:104F90004ED0FFE704980168012040F22842C4F295
:104FA00002029142029043D0FFE704980168012079
:104FB00040F24042C4F202029142029038D0FFE730
:104FC00004980168012040F25842C4F20202914262
:104FD00002902DD0FFE704980168012040F2704252
:104FE000C4F202029142029022D0FFE704980168C5
:104FF000012040F28842C4F202029142029017D08E
:10500000FFE704980168012040F2A042C4F20202C6
:10501000914202900CD0FFE7049800684FF64831A7
:10502000CBF6FD710844B0FA80F040090290FFE72A
:105030000298C007002800F09D80FFE70499042033
:1050400081F83500049800681021C4F202018842FA
:1050500000F08180FFE7049800682821C4F2020173
:10506000884278D0FFE7049800684021C4F202012A
:10507000884270D0FFE7049800685821C4F202010A
:10508000884268D0FFE7049800687021C4F20201EA
:10509000884260D0FFE7049800688821C4F20201CA
:1050A000884258D0FFE704980068A021C4F20201AA
:1050B000884250D0FFE704980068B821C4F202018A
:1050C000884248D0FFE70498006840F21041C4F2DB
:1050D000020188423FD0FFE70498006840F228416F
:1050E000C4F20201884236D0FFE70498006840F21B
:1050F0004041C4F2020188422DD0FFE704980068C5
:1051000040F25841C4F20201884224D0FFE70498DB
:10511000006840F27041C4F2020188421BD0FFE7F0
:105120000498006840F28841C4F20201884212D01B
:10513000FFE70498006840F2A041C4F202018842EF
:1051400009D0FFE70498006840F2B841C4F20201B8
:10515000884207D1FFE704980168086820F0010041
:10516000086006E004980168086820F00100086003
:10517000FFE7E5E104980168086820F00E00086088
:10518000049800681021C4F20201884200F0818076
:10519000FFE7049800682821C4F20201884278D011
:1051A000FFE7049800684021C4F20201884270D0F1
:1051B000FFE7049800685821C4F20201884268D0D1
:1051C000FFE7049800687021C4F20201884260D0B1
:1051D000FFE7049800688821C4F20201884258D091
:1051E000FFE704980068A021C4F20201884250D071
:1051F000FFE704980068B821C4F20201884248D051
:10520000FFE70498006840F21041C4F202018842AE
:105210003FD0FFE70498006840F22841C4F2020141
:10522000884236D0FFE70498006840F24041C4F25B
:10523000020188422DD0FFE70498006840F25841EF
:10524000C4F20201884224D0FFE70498006840F2CB
:105250007041C4F2020188421BD0FFE70498006845
:1052600040F28841C4F20201884212D0FFE704985C
:10527000006840F2A041C4F20201884209D0FFE771
:105280000498006840F2B841C4F20201884207D194
:10529000FFE704980168086820F00100086006E054
:1052A00004980168086820F001000860FFE704988E
:1052B000016801201022C4F202029142019000F024
:1052C0000381FFE70498016801202822C4F202024A
:1052D0009142019000F0F880FFE7049801680120F6
:1052E0004022C4F202029142019000F0ED80FFE7FB
:1052F0000498016801205822C4F2020291420190F0
:1053000000F0E280FFE70498016801207022C4F2F7
:1053100002029142019000F0D780FFE704980168F3
:1053200001208822C4F202029142019000F0CC8058
:10533000FFE7049801680120A022C4F20202914212
:10534000019000F0C180FFE7049801680120B822B5
:10535000C4F202029142019000F0B680FFE7049887
:105360000168012040F21042C4F202029142019011
:1053700000F0AA80FFE704980168012040F228426B
:10538000C4F202029142019000F09E80FFE704986F
:105390000168012040F24042C4F2020291420190B1
:1053A00000F09280FFE704980168012040F2584223
:1053B000C4F202029142019000F08680FFE7049857
:1053C0000168012040F27042C4F202029142019051
:1053D0007AD0FFE704980168012040F28842C4F2C5
:1053E0000202914201906FD0FFE70498016801200A
:1053F00040F2A042C4F202029142019064D0FFE761
:1054000004980168012040F2B842C4F202029142BD
:10541000019059D0FFE704980168012045F2084245
:10542000C5F60202914201904ED0FFE70498016850
:10543000012045F21C42C5F602029142019043D080
:10544000FFE704980168012045F23042C5F60202E8
:105450009142019038D0FFE704980168012045F29D
:105460004442C5F60202914201902DD0FFE7049814
:105470000168012045F25842C5F6020291420190AE
:1054800022D0FFE704980168012045F26C42C5F67E
:1054900002029142019017D0FFE7049801680120B1
:1054A00045F28042C5F60202914201900CD0FFE71E
:1054B000049800684AF66C31CAF2FD710844B0FAEB
:1054C00080F040090190FFE70198C00728B3FFE78B
:1054D0000498016E086820F4807008600498806D5C
:1054E00003900498C06D00F01F01012088400399CB
:1054F00048600498416E806E48600498C06E58B150
:10550000FFE70498C16E086820F480700860049872
:10551000016F406F4860FFE7FFE70499012081F8C1
:105520003500FFE70499002081F83400FFE7049874
:10553000006D20B1FFE70498016D8847FFE7FFE7A2
:10554000FFE700208DF81700FFE79DF8170006B071
:1055500080BD00000000000080B588B0069006986D
:1055600020B9FFE701208DF81F002FE206980068A0
:105570001021C4F20201884200F08180FFE7069802
:1055800000682821C4F20201884278D0FFE706981B
:1055900000684021C4F20201884270D0FFE70698FB
:1055A00000685821C4F20201884268D0FFE70698DB
:1055B00000687021C4F20201884260D0FFE70698BB
:1055C00000688821C4F20201884258D0FFE706989B
:1055D0000068A021C4F20201884250D0FFE706987B
:1055E0000068B821C4F20201884248D0FFE706985B
:1055F000006840F21041C4F2020188423FD0FFE748
:105600000698006840F22841C4F20201884236D070
:10561000FFE70698006840F24041C4F20201884268
:105620002DD0FFE70698006840F25841C4F202010D
:10563000884224D0FFE70698006840F27041C4F227
:10564000020188421BD0FFE70698006840F28841BB
:10565000C4F20201884212D0FFE70698006840F2C7
:10566000A041C4F20201884209D0FFE70698006811
:1056700040F2B841C4F20201884207D1FFE7069820
:105680000168086820F00100086006E006980168DB
:10569000086820F001000860FFE706980168012013
:1056A0001022C4F202029142039000F0A380FFE7AF
:1056B0000698016801202822C4F202029142039058
:1056C00000F09880FFE70698016801204022C4F2AC
:1056D00002029142039000F08D80FFE70698016876
:1056E00001205822C4F202029142039000F082800D
:1056F000FFE70698016801207022C4F2020291427D
:10570000039077D0FFE70698016801208822C4F251
:105710000202914203906DD0FFE7069801680120D4
:10572000A022C4F202029142039063D0FFE70698E0
:1057300001680120B822C4F202029142039059D0BC
:10574000FFE706980168012040F21042C4F202020D
:10575000914203904ED0FFE706980168012040F285
:105760002842C4F202029142039043D0FFE7069818
:105770000168012040F24042C4F2020291420390CB
:1057800038D0FFE706980168012040F25842C4F281
:105790000202914203902DD0FFE706980168012094
:1057A00040F27042C4F202029142039022D0FFE71D
:1057B00006980168012040F28842C4F20202914238
:1057C000039017D0FFE706980168012040F2A0423D
:1057D000C4F20202914203900CD0FFE706980068E1
:1057E0004FF64831CBF6FD710844B0FA80F040091D
:1057F0000390FFE70398C00708B3FFE70698016826
:105800000020086006990968486006990968886060
:1058100006990968C86006990968086106980168D0
:10582000212048610698FBF763FE05900698C06D3D
:1058300000F01F013F208840059988607EE00698AF
:105840000168012045F20842C5F602029142029029
:105850004ED0FFE706980168012045F21C42C5F6CC
:1058600002029142029043D0FFE7069801680120AE
:1058700045F23042C5F602029142029038D0FFE76D
:1058800006980168012045F24442C5F602029142A1
:1058900002902DD0FFE706980168012045F258429A
:1058A000C5F602029142029022D0FFE706980168F5
:1058B000012045F26C42C5F602029142029017D0D7
:1058C000FFE706980168012045F28042C5F6020212
:1058D000914202900CD0FFE7069800684AF66C31BE
:1058E000CAF2FD710844B0FA80F040090290FFE767
:1058F0000298C007E8B1FFE7069801680020086039
:1059000006990968486006990968886006990968D7
:10591000C8600699096808610698FBF7E9FD0490DC
:105920000698C06D00F01F0101208840049948606E
:1059300003E001208DF81F0048E0FFE70698FBF721
:10594000BFFE0698006E48B1FFE70698016E002082
:1059500008600698416E806E4860FFE706984068D0
:1059600088B1FFE70698406808280CD8FFE706983A
:10597000FBF762FF0698C16E002008600698016F71
:10598000406F4860FFE7069900200190C8660699BD
:105990000867069948670699C863069908640699D6
:1059A0004864069988640699C8640699086506994A
:1059B0004865069981F83500FFE70699002081F8CF
:1059C0003400FFE700208DF81F00FFE79DF81F005F
:1059D00008B080BD0000000081B000900098406DCC
:1059E00001B070470000000080B590B00F9000201B
:1059F0000B9040F2A430C2F20040006848F2B511AA
:105A0000C1F64E31A0FB0110800A0A900F98806DFC
:105A100009900F98806D0890099800680E9008987A
:105A200000680D900F98016801201022C4F2020254
:105A30009142079000F0A380FFE70F9801680120D2
:105A40002822C4F202029142079000F09880FFE7FA
:105A50000F98016801204022C4F20202914207908F
:105A600000F08D80FFE70F98016801205822C4F2F2
:105A700002029142079000F08280FFE70F980168D0
:105A800001207022C4F202029142079077D0FFE712
:105A90000F98016801208822C4F202029142079007
:105AA0006DD0FFE70F9801680120A022C4F2020226
:105AB0009142079063D0FFE70F9801680120B82258
:105AC000C4F202029142079059D0FFE70F98016893
:105AD000012040F21042C4F20202914207904ED0DF
